:100000000C9434000C943E000C943E000C943E0082
:100010000C943E000C943E000C943E000C943E0068
:100020000C943E000C943E000C943E000C943E0058
:100030000C943E000C943E000C943E000C943E0048
:100040000C943E000C943E000C943E000C943E0038
:100050000C943E000C943E000C943E000C943E0028
:100060000C943E000C943E0011241FBECFEFD8E04C
:10007000DEBFCDBF0E9456000C945D000C940000C2
:1000800014B8219A299A1AB8579A569A5F985A988A
:100090005B98089584B5836084BD85B5826085BD15
:1000A00085E587BD84B5806884BD08950E944000C1
:0E00B0000E944A005F9A299AFFCFF894FFCF72
:00000001FF
