:100000000C9434000C9446000C9446000C9446006A
:100010000C9446000C9446000C9446000C94460048
:100020000C9446000C9446000C9446000C94460038
:100030000C9446000C9446000C9446000C94460028
:100040000C9463000C9446000C9446000C944600FB
:100050000C9446000C9446000C9446000C94460008
:100060000C9446000C94460011241FBECFEFD8E03C
:10007000DEBFCDBF21E0A0E0B1E001C01D92A630FF
:10008000B207E1F70E94D2000C9454010C940000D6
:1000900014B8209A1AB8579A5F985A985B985D9846
:1000A000089514BC15BC85B58B7F85BD85B58D7F46
:1000B00085BD85B5816085BDEEE6F0E0108280816A
:1000C0008160808308951F920F920FB60F921124C2
:1000D0000F900FBE0F901F9018954D9B32C08091CE
:1000E000000181112AC05F9B13C080910201909191
:1000F0000301A0910401B09105010196A11DB11D5C
:100100008093020190930301A0930401B093050131
:10011000289B13C08091020190910301A0910401DA
:10012000B09105010197A109B10980930201909353
:100130000301A0930401B093050181E080930001C5
:10014000089580910001813051F55F9B13C080912B
:10015000020190910301A0910401B0910501019663
:10016000A11DB11D8093020190930301A09304018E
:10017000B0930501289B13C0809102019091030167
:10018000A0910401B09105010197A109B1098093E3
:10019000020190930301A0930401B0930501109212
:1001A000000108950E9448000E945100789411E0D7
:1001B000D2E003E06894FF24F2F8C5E00E946D00ED
:1001C00080910101811115C04A9B13C05F9A2FEFE6
:1001D00083ED90E3215080409040E1F700C00000A3
:1001E0005F985F98289A4A9BFECF5F982898109353
:1001F000010180910101813059F4109202011092A5
:10020000030110920401109205015F9AD09301013D
:1002100080910101823079F4809102019091030173
:10022000A0910401B09105018797A105B10518F0CF
:100230005F980093010180910101833061F42FEFF9
:1002400083E294EF215080409040E1F700C000002D
:100250005F9AF092010180910101843071F44B9B0F
:10026000FECF5F982FEF87EA91E6215080409040C3
:10027000E1F700C00000C0930101809101018530C9
:1002800009F09CCF5F98289A4A9BFECF5F982898E8
:100290002FEF87EA91E6215080409040E1F700C0BF
:0C02A0000000109201018ACFF894FFCFFB
:00000001FF
