S010000041756667616265342E7372656335
S11300000C9434000C943E000C943E000C943E007E
S11300100C943E000C943E000C943E000C943E0064
S11300200C943E000C943E000C943E000C943E0054
S11300300C943E000C943E000C943E000C943E0044
S11300400C943E000C943E000C943E000C943E0034
S11300500C943E000C943E000C943E000C943E0024
S11300600C943E000C943E0011241FBECFEFD8E048
S1130070DEBFCDBF0E9440000C947B000C940000B6
S11300801AB8579A5F985A985B9880E090E020E0FD
S113009030E040E050E070E060E0F1E0E0E04A9BF6
S11300A008C02115310539F44F5F5F4F2F2F3E2FC4
S11300B002C0272F362F4B9917C08130910559F470
S11300C014161506A4F4415051091416150644F0EB
S11300D0872F962F0EC0141615065CF4009749F46A
S11300E05F9A872F962FDBCF8F2F9E2F02C0872FEB
S10D00F0962F5F98D4CFF894FFCF49
S9030000FC
